S01700004763634170706C69636174696F6E312E737265635B
S11300000C942A000C943F000C943F000C943F0085
S11300100C943F000C943F000C943F000C943F0060
S11300200C943F000C943F000C943F000C943F0050
S11300300C943F000C943F000C943F000C943F0040
S11300400C943F000C943F000C943F000C943F0030
S11300500C943F0011241FBECFE5D8E0DEBFCDBF16
S113006010E0A0E6B0E0E0E4F7E002C005900D92F5
S1130070A237B107D9F70E94EF000C949E030C94A9
S1130080000080FF02C0DC9A01C0DC9881FF02C03E
S1130090DD9A01C0DD9882FF02C0DE9A01C0DE98BD
S11300A083FF02C0DF9A0895DF98089589B382958B
S11300B08170CD998260CE998460CF9988600895CB
S11300C0CF93DF93D498D598D698D798DA9ADB9AB9
S11300D00E94560090E1899FE0011124DB98DB9A8D
S11300E00E945600DB988C2BDF91CF910895D9980C
S11300F00E9460000895CF93C82FD49AD59AD69AB7
S1130100D79ADA98DB9A82958F700E944100DB9827
S1130110DB9A8C2F0E944100DB980E947700882391
S1130120E4F3CF910895D9980E947B000895D99A59
S11301300E947B000895CF93DF93EC01888188238C
S113014031F021960E94970089918111FBCFDF91B4
S1130150CF91089581E00E94930083EF91E001978D
S1130160F1F700C000000895CF93D49AD59AD69A97
S1130170D79AD39AD19AD29A85EA9EE00197F1F759
S113018000C00000D998DB98DA98C3E0DB9A83E0DA
S11301900E944100DB9881EE94E00197F1F700C0E2
S11301A00000C15099F7DB9A82E00E944100DB987D
S11301B089EF90E00197F1F700C0000088E20E9407
S11301C0930088E00E94930081E00E94930086E0FF
S11301D00E9493008CE00E949300CF910895CF93E6
S11301E0DF93CDB7DEB727970FB6F894DEBF0FBE07
S11301F0CDBF0E94B40088E690E00E949B000E945C
S113020067012FE986E891E0215080409040E1F7B2
S113021000C000008DE690E00E949B0084EB0E94E9
S1130220890187E00E94B00185EB0E94A7010E942A
S1130230BD01F82E0E94BD01182F0E94C4010E9426
S1130240AA011F77612F70E0762F66276F0D711D4D
S1130250072E000C880B990B0E9470022AE037EDE0
S113026043EA5CE30E94FC026B017C010E94AA0049
S113027087E0E0E6F0E0DE01119601900D928A95A8
S1130280E1F723E333E948E853E4C701B6010E94E8
S1130290CB0120E030E048EC52E40E94FC020E94D2
S11302A03802DC01CB014AE0BE016F5F7F4F0E9440
S11302B06903CE0101960E949B002FE986E891E034
S11302C0215080409040E1F700C00000A7CF11B852
S11302D082E080B9089594EA96BF06B607FEFDCF82
S11302E091B1987F983011F0903179F483B984E812
S11302F086BF06B607FEFDCF91B1987F983139F0DD
S113030081E0903429F480E0089581E0089580E04C
S1130310089524EA34E844E926BF06B607FEFDCF73
S113032091B1987F983011F09031B1F783B936BF0D
S113033006B607FEFDCF91B1987F903211F0983543
S113034029F446BF06B604FCFDCFE6CF08950E940B
S11303506B01089584E986BF06B604FCFDCF0895B9
S113036083B984E886BF06B607FEFDCF91B1987FB6
S113037081E0983209F480E0089584EC86BF06B6E3
S113038007FEFDCF83B1089584E886BF06B607FE55
S1130390FDCF83B108955058BB27AA270E94E301DB
S11303A00C94C2020E94B40238F00E94BB0220F0F6
S11303B039F49F3F19F426F40C94B1020EF4E0953D
S11303C0E7FB0C94AB02E92F0E94D30258F3BA174F
S11303D0620773078407950720F079F4A6F50C9457
S11303E0F5020EF4E0950B2EBA2FA02D0B01B901E6
S11303F090010C01CA01A0011124FF27591B99F097
S1130400593F50F4503E68F11A16F040A22F232FA2
S1130410342F4427585FF3CF469537952795A795F2
S1130420F0405395C9F77EF41F16BA0B620B730B99
S1130430840BBAF09150A1F0FF0FBB1F661F771F0A
S1130440881FC2F70EC0BA0F621F731F841F48F4BF
S1130450879577956795B795F7959E3F08F0B0CF48
S11304609395880F08F09927EE0F9795879508952F
S11304700E943F026894B1110C94F60208950E9400
S1130480DB0288F09F5798F0B92F9927B751B0F045
S1130490E1F0660F771F881F991F1AF0BA95C9F704
S11304A014C0B13091F00E94F502B1E008950C94AB
S11304B0F502672F782F8827B85F39F0B93FCCF35E
S11304C0869577956795B395D9F73EF49095809581
S11304D0709561957F4F8F4F9F4F0895E89409C0A1
S11304E097FB3EF490958095709561957F4F8F4F63
S11304F09F4F9923A9F0F92F96E9BB279395F69579
S1130500879577956795B795F111F8CFFAF4BB0FF6
S113051011F460FF1BC06F5F7F4F8F4F9F4F16C05A
S1130520882311F096E911C0772321F09EE8872FE4
S1130530762F05C0662371F096E8862F70E060E0A0
S11305402AF09A95660F771F881FDAF7880F969519
S1130550879597F9089597F99F6780E870E060E0C0
S113056008959FEF80EC089500240A941616170648
S113057018060906089500240A9412161306140690
S113058005060895092E0394000C11F4882352F0F3
S1130590BB0F40F4BF2B11F460FF04C06F5F7F4FAB
S11305A08F4F9F4F089557FD9058440F551F59F092
S11305B05F3F71F04795880F97FB991F61F09F3F4C
S11305C079F087950895121613061406551FF2CF75
S11305D04695F1DF08C0161617061806991FF1CFC5
S11305E086957105610508940895E894BB276627EC
S11305F07727CB0197F908950E940F030C94C20248
S11306000E94B40238F00E94BB0220F0952311F03E
S11306100C94AB020C94B10211240C94F6020E94C7
S1130620D30270F3959FC1F3950F50E0551F629F5D
S1130630F001729FBB27F00DB11D639FAA27F00D37
S1130640B11DAA1F649F6627B00DA11D661F829F5E
S11306502227B00DA11D621F739FB00DA11D621F43
S1130660839FA00D611D221F749F3327A00D611D60
S1130670231F849F600D211D822F762F6A2F112442
S11306809F5750409AF0F1F088234AF0EE0FFF1F75
S1130690BB1F661F771F881F91505040A9F79E3FCC
S11306A0510580F00C94AB020C94F6025F3FE4F326
S11306B0983ED4F3869577956795B795F795E79522
S11306C09F5FC1F7FE2B880F911D9695879597F92B
S11306D00895BB274A3031F4992322F4BDE2909562
S11306E081959F4F0C947503BB27FB015527AA27BF
S11306F0880F991FAA1FA41710F0A41B83955051AB
S1130700B9F7A05DAA3308F0A95DA193009779F722
S1130710B111B1931192CB010C948E03DC01FC0155
S1130720672F71917723E1F7329704C07C916D9321
S113073070836291AE17BF07C8F30895F894FFCF92
S11307407878787878787800746573740064757054
S1050750610042
S9030000FC
