S01100005079726F6D657465722E737265634C
S11300000C942A000C943F000C943F000C943F0085
S11300100C943F000C943F000C943F000C943F0060
S11300200C943F000C943F000C943F000C943F0050
S11300300C943F000C943F000C943F000C943F0040
S11300400C943F000C943F000C943F000C943F0030
S11300500C943F0011241FBECFE5D8E0DEBFCDBF16
S113006010E0A0E6B0E0ECEFFAE002C005900D92DB
S1130070A837B107D9F70E946F020C947C050C9441
S1130080000080FF02C0DC9A01C0DC9881FF02C03E
S1130090DD9A01C0DD9882FF02C0DE9A01C0DE98BD
S11300A083FF02C0DF9A0895DF98089589B382958B
S11300B08170CD998260CE998460CF9988600895CB
S11300C0CF93DF93D498D598D698D798DA9ADB9AB9
S11300D00E94560090E1899FE0011124DB98DB9A8D
S11300E00E945600DB988C2BDF91CF910895D9980C
S11300F00E9460000895CF93C82FD49AD59AD69AB7
S1130100D79ADA98DB9A82958F700E944100DB9827
S1130110DB9A8C2F0E944100DB980E947700882391
S1130120E4F3CF910895D9980E947B000895D99A59
S11301300E947B000895CF93DF93EC01888188238C
S113014031F021960E94970089918111FBCFDF91B4
S1130150CF91089590E4699F800D112480680E94D6
S11301609300089581E00E94930083EF91E001974A
S1130170F1F700C000000895CF93D49AD59AD69A87
S1130180D79AD39AD19AD29A85EA9EE00197F1F749
S113019000C00000D998DB98DA98C3E0DB9A83E0CA
S11301A00E944100DB9881EE94E00197F1F700C0D2
S11301B00000C15099F7DB9A82E00E944100DB986D
S11301C089EF90E00197F1F700C0000088E20E94F7
S11301D0930088E00E94930081E00E94930086E0EF
S11301E00E9493008CE00E949300CF9108954F9257
S11301F05F926F927F928F929F92AF92BF92CF92B3
S1130200DF92EF92FF920F931F93CF93DF93CDB7BB
S1130210DEB72F970FB6F894DEBF0FBECDBF2B010C
S11302203C017A0187E0E0E6F0E0DE0111960190FE
S11302300D928A95E1F7C301B2010E94E7034B01D5
S11302405C018B0120E030E04AE754E4C301B201D1
S11302500E94AB040E94E7039B01772324F4222726
S11302603327261B370BD22EC32E21E332E33987E3
S1130270288783E390E09B878A873D872C879F8725
S11302808E87C401112324F4882799278819990992
S11302905C014AE0BE01685F7F4F0E9447058D2DD7
S11302A09C2D68EE73E00E9418054AE0BE01645F6D
S11302B07F4F0E94470580E289838A838B8384E68B
S11302C0A816B1045CF088858A8389858B838A8526
S11302D08C831123B4F48DE2898313C08AE0A816B9
S11302E0B1044CF088858B8389858C83BB204CF4C6
S11302F08DE28A8306C088858C83BB2014F48DE24A
S11303008B838EE28D838C858E838D858F83BE0156
S11303106F5F7F4FC7010E9440052F960FB6F89478
S1130320DEBF0FBECDBFDF91CF911F910F91FF9024
S1130330EF90DF90CF90BF90AF909F908F907F9081
S11303406F905F904F900895CF93DF93EC010E94DC
S1130350B20061E080E00E94AA0088E690E00E947A
S11303609B0061E088E00E94AA00CE010E949B00ED
S113037061E08FE00E94AA0081E790E00E949B0068
S113038087EA91E60197F1F700C00000DF91CF9171
S11303900895EF92FF920F931F93CF93DF93EC0195
S11303A08C010C5A1F4F84EB0E94C60287E00E9406
S11303B0ED0285EB0E94E4020E94FA02E82E0E94FC
S11303C0FA02F82E0E9401030E94E7026F2D6F7754
S11303D070E0762F66276E0D711D072E000C880BBA
S11303E0990B0E941F042AE037ED43EA5CE30E9464
S11303F0AB0423E333E948E853E40E940803699318
S1130400799389939993C017D10769F6DF91CF91B6
S11304101F910F91FF90EF9008958F929F92AF924A
S1130420BF92CF92DF92EF92FF926B017C012CE698
S113043039E049E75BE30E94AB04A70196010E94FF
S1130440AB044B015C012FE538E94CEA5EEBC701D4
S1130450B6010E94AB049B01AC01C501B4010E942A
S1130460090322EC37E148EF50E40E9409039B01A1
S1130470AC01C701B6010E940803FF90EF90DF9022
S1130480CF90BF90AF909F908F900895EF92FF927E
S11304900F931F93CF93DF937B01EC018C010C5AD4
S11304A01F4F60E070E0CB01299139914991599136
S11304B00E940903C017D107B9F720E030E040EAF1
S11304C051E40E9475030E940D02A7010E94F700E7
S11304D0DF91CF911F910F91FF90EF900895CF93EB
S11304E0DF93CDB7DEB7CB55D1090FB6F894DEBF95
S11304F00FBECDBF0E94BC0083E790E00E949B002A
S11305000E94A40280E881BB82BB879911C0CE01FE
S113051001960E94C901BE016B5A7F4FCE0101961C
S11305200E94460287E893E10197F1F700C00000BA
S1130530CE018B5A9F4F0E94A4018FE493EC019744
S1130540F1F700C00000E1CF11B882E080B908954E
S113055094EA96BF06B607FEFDCF91B1987F983016
S113056011F0903179F483B984E886BF06B607FEAA
S1130570FDCF91B1987F983139F081E0903429F41E
S113058080E0089581E0089580E0089524EA34E845
S113059044E926BF06B607FEFDCF91B1987F983097
S11305A011F09031B1F783B936BF06B607FEFDCF1F
S11305B091B1987F903211F0983529F446BF06B670
S11305C004FCFDCFE6CF08950E94A802089584E9B3
S11305D086BF06B604FCFDCF089583B984E886BFC0
S11305E006B607FEFDCF91B1987F81E0983209F4F9
S11305F080E0089584EC86BF06B607FEFDCF83B184
S1130600089584E886BF06B607FEFDCF83B108953A
S11306105058BB27AA270E9420030C9471040E94FF
S1130620630438F00E946A0420F039F49F3F19F4FF
S113063026F40C9460040EF4E095E7FB0C945A0441
S1130640E92F0E94820458F3BA17620773078407DC
S1130650950720F079F4A6F50C94A4040EF4E09523
S11306600B2EBA2FA02D0B01B90190010C01CA0168
S1130670A0011124FF27591B99F0593F50F4503E13
S113068068F11A16F040A22F232F342F4427585F05
S1130690F3CF469537952795A795F0405395C9F71D
S11306A07EF41F16BA0B620B730B840BBAF09150D5
S11306B0A1F0FF0FBB1F661F771F881FC2F70EC074
S11306C0BA0F621F731F841F48F487957795679547
S11306D0B795F7959E3F08F0B0CF9395880F08F033
S11306E09927EE0F9795879508950E9489030C9496
S11306F071040E946A0458F00E94630440F029F4D3
S11307005F3F29F00C945A0451110C94A5040C94E5
S113071060040E94820468F39923B1F3552391F392
S1130720951B550BBB27AA2762177307840738F05C
S11307309F5F5F4F220F331F441FAA1FA9F335D0B9
S11307400E2E3AF0E0E832D091505040E695001C6D
S1130750CAF72BD0FE2F29D0660F771F881FBB1F27
S1130760261737074807AB07B0E809F0BB0B802D05
S1130770BF01FF2793585F4F3AF09E3F510578F031
S11307800C945A040C94A5045F3FE4F3983ED4F30C
S1130790869577956795B795F7959F5FC9F7880F05
S11307A0911D9695879597F90895E1E0660F771F57
S11307B0881FBB1F621773078407BA0720F0621BE8
S11307C0730B840BBA0BEE1F88F7E09508950E9413
S11307D0EE036894B1110C94A50408950E948A0450
S11307E088F09F5798F0B92F9927B751B0F0E1F0EE
S11307F0660F771F881F991F1AF0BA95C9F714C09E
S1130800B13091F00E94A404B1E008950C94A404C2
S1130810672F782F8827B85F39F0B93FCCF38695D6
S113082077956795B395D9F73EF490958095709533
S113083061957F4F8F4F9F4F0895E89409C097FBB0
S11308403EF490958095709561957F4F8F4F9F4FA3
S11308509923A9F0F92F96E9BB279395F6958795E7
S113086077956795B795F111F8CFFAF4BB0F11F4AA
S113087060FF1BC06F5F7F4F8F4F9F4F16C0882351
S113088011F096E911C0772321F09EE8872F762F87
S113089005C0662371F096E8862F70E060E02AF0C8
S11308A09A95660F771F881FDAF7880F96958795B4
S11308B097F9089597F99F6780E870E060E00895DC
S11308C09FEF80EC089500240A9416161706180664
S11308D00906089500240A94121613061406050640
S11308E00895092E0394000C11F4882352F0BB0FD1
S11308F040F4BF2B11F460FF04C06F5F7F4F8F4F34
S11309009F4F089557FD9058440F551F59F05F3F6E
S113091071F04795880F97FB991F61F09F3F79F01D
S113092087950895121613061406551FF2CF46959F
S1130930F1DF08C0161617061806991FF1CF869521
S11309407105610508940895E894BB276627772705
S1130950CB0197F908950E94BE040C9471040E947F
S1130960630438F00E946A0420F0952311F00C947B
S11309705A040C94600411240C94A5040E9482046B
S113098070F3959FC1F3950F50E0551F629FF001DE
S1130990729FBB27F00DB11D639FAA27F00DB11DF7
S11309A0AA1F649F6627B00DA11D661F829F222780
S11309B0B00DA11D621F739FB00DA11D621F839F07
S11309C0A00D611D221F749F3327A00D611D231FDD
S11309D0849F600D211D822F762F6A2F11249F572B
S11309E050409AF0F1F088234AF0EE0FFF1FBB1F2E
S11309F0661F771F881F91505040A9F79E3F5105ED
S1130A0080F00C945A040C94A5045F3FE4F3983EE0
S1130A10D4F3869577956795B795F795E7959F5F96
S1130A20C1F7FE2B880F911D9695879597F9089528
S1130A3097FB072E16F4009407D077FD09D00E9487
S1130A402C0507FC05D03EF4909581959F4F0895A1
S1130A50709561957F4F0895AA1BBB1B51E107C098
S1130A60AA1FBB1FA617B70710F0A61BB70B881F3A
S1130A70991F5A95A9F780959095BC01CD010895C9
S1130A80FB01DC0101900D920020E1F70895BB27E2
S1130A904A3031F4992322F4BDE2909581959F4F19
S1130AA00C945305BB27FB015527AA27880F991FD0
S1130AB0AA1FA41710F0A41B83955051B9F7A05D89
S1130AC0AA3308F0A95DA193009779F7B111B19306
S1130AD01192CB010C946C05DC01FC01672F719120
S1130AE07723E1F7329704C07C916D937083629110
S10F0AF0AE17BF07C8F30895F894FFCFB9
S1130AFC5858585858585800415645524147453A49
S10B0B0C004300494E49540066
S9030000FC
