S01100005079726F6D657465722E737265634C
S11300000C942A000C9447000C9447000C9447006D
S11300100C9447000C9447000C9447000C94470040
S11300200C9447000C9447000C9447000C94470030
S11300300C9447000C9447000C9447000C94470020
S11300400C9447000C9447000C9447000C94470010
S11300500C94470011241FBECFE5D8E0DEBFCDBF0E
S113006010E0A0E6B0E0ECEAF9E002C005900D92E1
S1130070A438B107D9F720E0A4E8B0E001C01D928C
S1130080A939B207E1F70E943D020C94D4040C9400
S1130090000080FF02C0DC9A01C0DC9881FF02C02E
S11300A0DD9A01C0DD9882FF02C0DE9A01C0DE98AD
S11300B083FF02C0DF9A0895DF98089589B382957B
S11300C08170CD998260CE998460CF9988600895BB
S11300D0CF93DF93D498D598D698D798DA9ADB9AA9
S11300E00E945E0090E1899FE0011124DB98DB9A75
S11300F00E945E00DB988C2BDF91CF910895D998F4
S11301000E9468000895CF93C82FD49AD59AD69A9E
S1130110D79ADA98DB9A82958F700E944900DB980F
S1130120DB9A8C2F0E944900DB980E947F00882371
S1130130E4F3CF910895D9980E9483000895D99A41
S11301400E9483000895CF93DF93EC018881882374
S113015031F021960E949F0089918111FBCFDF919C
S1130160CF91089590E4699F800D112480680E94C6
S11301709B00089581E00E949B0083EF91E001972A
S1130180F1F700C000000895CF93D49AD59AD69A77
S1130190D79AD39AD19AD29A85EA9EE00197F1F739
S11301A000C00000D998DB98DA98C3E0DB9A83E0BA
S11301B00E944900DB9881EE94E00197F1F700C0BA
S11301C00000C15099F7DB9A82E00E944900DB9855
S11301D089EF90E00197F1F700C0000088E20E94E7
S11301E09B0088E00E949B0081E00E949B0086E0C7
S11301F00E949B008CE00E949B00CF9108954F9237
S11302005F926F927F928F929F92AF92BF92CF92A2
S1130210DF92EF92FF920F931F93CF93DF93CDB7AB
S1130220DEB72F970FB6F894DEBF0FBECDBF2B01FC
S11302303C017A0187E0E0E6F0E0DE0111960190EE
S11302400D928A95E1F7C301B2010E943F034B016D
S11302505C018B0120E030E04AE754E4C301B201C1
S11302600E9403040E943F039B01772324F4222766
S11302703327261B370BD22EC32E21E332E33987D3
S1130280288783E390E09B878A873D872C879F8715
S11302908E87C401112324F4882799278819990982
S11302A05C014AE0BE01685F7F4F0E949F048D2D70
S11302B09C2D68EE73E00E9470044AE0BE01645F06
S11302C07F4F0E949F0480E289838A838B8384E624
S11302D0A816B1045CF088858A8389858B838A8516
S11302E08C831123B4F48DE2898313C08AE0A816A9
S11302F0B1044CF088858B8389858C83BB204CF4B6
S11303008DE28A8306C088858C83BB2014F48DE239
S11303108B838EE28D838C858E838D858F83BE0146
S11303206F5F7F4FC7010E9498042F960FB6F89411
S1130330DEBF0FBECDBFDF91CF911F910F91FF9014
S1130340EF90DF90CF90BF90AF909F908F907F9071
S11303506F905F904F90089561E080E00E94B2003A
S113036080E790E00E94A30061E088E00E94B20070
S113037089E790E00E94A30061E08FE00E94B20050
S11303808CE790E00E94A30087EA91E60197F1F7D9
S113039000C000000895EF92FF920F931F93CF9334
S11303A0DF93EC018C010C5A1F4F84EB0E949002E6
S11303B087E00E94B70285EB0E94AE020E94C4024D
S11303C0E82E0E94C402F82E0E94CB020E94B102C1
S11303D06F2D6F7770E0762F66276E0D711D072ED7
S11303E0000C880B990B0E9477032AE037ED43EA4F
S11303F05CE30E94030423E333E948E853E40E94E6
S1130400D2026993799389939993C017D10769F6B6
S11304100E94BA00DF91CF911F910F91FF90EF904E
S11304200895CF93DF93CDB7DEB727970FB6F8942F
S1130430DEBF0FBECDBF87E0E8E6F0E0DE01119637
S113044001900D928A95E1F7AE014F5F5F4F6CEE1C
S113045071E58CEB91E40E94FF00BE016F5F7F4F5A
S113046084E890E00E94980427960FB6F894DEBFC3
S11304700FBECDBFDF91CF910895CF93DF93CDB75A
S1130480DEB7C655D1090FB6F894DEBF0FBECDBF97
S11304900E94C4008EE790E00E94A3002FE38DE049
S11304A093E0215080409040E1F700C000000E949A
S11304B06E0280E881BB82BB67961FAE1EAE679753
S11304C0CE0101960E94CB01CE0101960E94110239
S11304D0CE018B5A9F4F0E94AC01F2CF11B882E03B
S11304E080B9089594EA96BF06B607FEFDCF91B190
S11304F0987F983011F0903179F483B984E886BFFD
S113050006B607FEFDCF91B1987F983139F081E0AE
S1130510903429F480E0089581E0089580E00895FE
S113052024EA34E844E926BF06B607FEFDCF91B1BC
S1130530987F983011F09031B1F783B936BF06B681
S113054007FEFDCF91B1987F903211F0983529F4D0
S113055046BF06B604FCFDCFE6CF08950E947202A2
S1130560089584E986BF06B604FCFDCF089583B9D7
S113057084E886BF06B607FEFDCF91B1987F81E07F
S1130580983209F480E0089584EC86BF06B607FE2D
S1130590FDCF83B1089584E886BF06B607FEFDCF7C
S11305A083B108955058BB27AA270E94EA020C94ED
S11305B0C9030E94BB0338F00E94C20320F039F43F
S11305C09F3F19F426F40C94B8030EF4E095E7FB6E
S11305D00C94B203E92F0E94DA0358F3BA176207A6
S11305E073078407950720F079F4A6F50C94FC03AF
S11305F00EF4E0950B2EBA2FA02D0B01B90190013A
S11306000C01CA01A0011124FF27591B99F0593F7D
S113061050F4503E68F11A16F040A22F232F342FC5
S11306204427585FF3CF469537952795A795F04013
S11306305395C9F77EF41F16BA0B620B730B840B28
S1130640BAF09150A1F0FF0FBB1F661F771F881FE0
S1130650C2F70EC0BA0F621F731F841F48F4879538
S113066077956795B795F7959E3F08F0B0CF93952A
S1130670880F08F09927EE0F9795879508950E94A3
S113068046036894B1110C94FD0308950E94E2039B
S113069088F09F5798F0B92F9927B751B0F0E1F03F
S11306A0660F771F881F991F1AF0BA95C9F714C0EF
S11306B0B13091F00E94FC03B1E008950C94FC0366
S11306C0672F782F8827B85F39F0B93FCCF3869528
S11306D077956795B395D9F73EF490958095709585
S11306E061957F4F8F4F9F4F0895E89409C097FB02
S11306F03EF490958095709561957F4F8F4F9F4FF5
S11307009923A9F0F92F96E9BB279395F695879538
S113071077956795B795F111F8CFFAF4BB0F11F4FB
S113072060FF1BC06F5F7F4F8F4F9F4F16C08823A2
S113073011F096E911C0772321F09EE8872F762FD8
S113074005C0662371F096E8862F70E060E02AF019
S11307509A95660F771F881FDAF7880F9695879505
S113076097F9089597F99F6780E870E060E008952D
S11307709FEF80EC089500240A94161617061806B5
S11307800906089500240A94121613061406050691
S11307900895092E0394000C11F4882352F0BB0F22
S11307A040F4BF2B11F460FF04C06F5F7F4F8F4F85
S11307B09F4F089557FD9058440F551F59F05F3FC0
S11307C071F04795880F97FB991F61F09F3F79F06F
S11307D087950895121613061406551FF2CF4695F1
S11307E0F1DF08C0161617061806991FF1CF869573
S11307F07105610508940895E894BB276627772757
S1130800CB0197F908950E9416040C94C9030E9421
S1130810BB0338F00E94C20320F0952311F00C941E
S1130820B2030C94B80311240C94FD030E94DA0360
S113083070F3959FC1F3950F50E0551F629FF0012F
S1130840729FBB27F00DB11D639FAA27F00DB11D48
S1130850AA1F649F6627B00DA11D661F829F2227D1
S1130860B00DA11D621F739FB00DA11D621F839F58
S1130870A00D611D221F749F3327A00D611D231F2E
S1130880849F600D211D822F762F6A2F11249F577C
S113089050409AF0F1F088234AF0EE0FFF1FBB1F7F
S11308A0661F771F881F91505040A9F79E3F51053E
S11308B080F00C94B2030C94FD035F3FE4F3983E84
S11308C0D4F3869577956795B795F795E7959F5FE8
S11308D0C1F7FE2B880F911D9695879597F908957A
S11308E097FB072E16F4009407D077FD09D00E94D9
S11308F0840407FC05D03EF4909581959F4F08959C
S1130900709561957F4F0895AA1BBB1B51E107C0E9
S1130910AA1FBB1FA617B70710F0A61BB70B881F8B
S1130920991F5A95A9F780959095BC01CD0108951A
S1130930FB01DC0101900D920020E1F70895BB2733
S11309404A3031F4992322F4BDE2909581959F4F6A
S11309500C94AB04BB27FB015527AA27880F991FCA
S1130960AA1FA41710F0A41B83955051B9F7A05DDA
S1130970AA3308F0A95DA193009779F7B111B19357
S11309801192CB010C94C404DC01FC01672F71911A
S11309907723E1F7329704C07C916D937083629161
S10F09A0AE17BF07C8F30895F894FFCF0A
S11309AC3132333435363700585858585858580063
S11309BC415645524147453A003131004300494EB6
S10709CC4954000086
S9030000FC
